:020000040800F2
:1000000008060020712900087D1100087F110008F2
:1000100083110008871100088B1100080000000000
:100020000000000000000000000000008F11000828
:1000300091110008000000009311000895110008BC
:100040008B2900088B2900088B2900088B290008C0
:100050008B2900088B2900088B2900088B290008B0
:100060008B2900088B2900088B2900088B290008A0
:100070008B2900088B2900088B2900088B29000890
:100080008B2900088B2900088B2900088B29000880
:100090008B2900088B2900088B2900088B29000870
:1000A0008B2900088B2900088B2900088B29000860
:1000B0008B2900088B290008F90400088B29000807
:1000C0008B2900088B2900088B2900088B29000840
:1000D0008B290008E10F0008EF1000088B290008A9
:1000E0008B2900088B2900088B2900088B29000820
:1000F0008B2900088B2900088B2900088B29000810
:100100008B2900088B2900088B2900088B290008FF
:100110008B2900088B2900088B2900088B290008EF
:100120008B2900088B2900088B2900088B290008DF
:10013000DFF80CD002F0D8FE004800474501000867
:100140000806002000F029FA01E000F098FCFCE726
:1001500010B56FF0040001F05EF92E4800682E49DA
:10016000B0FBF1F02D4908700846007800EB400123
:10017000C1EBC0104FF6FF7101EAC00028490880AA
:1001800010BD0146254A12784A434FF0E0235A61D8
:1001900000229A611A46126942F001021A6100BFF8
:1001A0004FF0E022106900F001021AB100F4803231
:1001B000002AF5D04FF0E022126922F001024FF040
:1001C000E0231A6100229A6170470146144A12889E
:1001D0004A434FF0E0235A6100229A611A4612699D
:1001E00042F001021A6100BF4FF0E022106900F0F6
:1001F00001021AB100F48032002AF5D04FF0E0225B
:10020000126922F001024FF0E0231A6100229A6184
:10021000704700004000002000127A00000000201B
:100220000200002008B501213C2001F02FFC4020F5
:10023000ADF8000010208DF8030003208DF80200B7
:1002400069462B4801F066F94021294801F00FFA70
:100250008020ADF800006946254801F05BF90120D7
:10026000244908600002ADF8000010208DF803005A
:1002700003208DF8020069461F4801F04BF94FF446
:1002800080711D4801F0F3F90420ADF80000102042
:100290008DF8030003208DF802006946174801F02D
:1002A00039F90421154801F0E2F90F20ADF80000FA
:1002B00004208DF8030003208DF8020069461048E1
:1002C00001F028F908BD08B50121082001F0DEFB86
:1002D0004FF48070ADF8000010208DF8030003206B
:1002E0008DF802006946024801F014F908BD0000CB
:1002F000000C01409C812142000801400014014093
:100300000010014010B540F2E73140F29F5000F07C
:1003100009F840F2E73140F29F5000F070F800F029
:10032000B9F810BD30B589B005460C460121022050
:1003300001F0B9FB01210C2001F0A8FBC020ADF8B1
:10034000200018208DF8230003208DF8220008A932
:100350007F4801F0DFF80320ADF8200018208DF869
:10036000230003208DF8220008A97A4801F0D2F872
:10037000ADF81850ADF814400020ADF81A00ADF8F3
:10038000160005A9744801F0B9FC7020ADF804000E
:100390000120ADF806000020ADF80A000220ADF8FB
:1003A0000C0001A96C4801F0E6FC01A96A4801F0C3
:1003B00024FD01A9684801F06DFD01A9664801F01E
:1003C000B4FD0121644802F001F80821624802F0FE
:1003D00021F90821604802F026F908215E4802F060
:1003E0002FF908215C4802F034F901215A4802F043
:1003F000E1F80121584801F0DDFF09B030BD30B50A
:1004000089B005460C460121C80201F03FFB0121DD
:10041000042001F03BFB4FF40060ADF820001820F1
:100420008DF8230003208DF8220008A9484801F028
:1004300071F8ADF81850ADF814400020ADF81A006E
:10044000ADF816008DF81C0005A9444801F056FCD3
:100450007020ADF804000120ADF806000020ADF8D2
:100460000A000220ADF80C0001A93C4801F05DFD36
:1004700001213A4801F0AAFF0821384802F0E9F8C2
:100480000121364802F096F80121344801F092FF2C
:1004900009B030BD1FB50121042001F004FB4FF667
:1004A000FF70ADF8080040F26710ADF804000020BE
:1004B000ADF80A00ADF8060001A9294801F01EFCBC
:1004C00001221146264801F090FF0121244801F045
:1004D00071FF4FF4A06000F04FFF1E208DF8000068
:1004E00000208DF8010001208DF802008DF8030036
:1004F000684600F046FF1FBD10B50121184802F004
:1005000022FA18B30121164802F02EFA15480068A5
:1005100038B114480068401C124908600120124993
:10052000086010480068192810D100200D490860A3
:100530000D49086001200D4908604FF4E13000F0DA
:1005400003FD00220121064801F04FFF10BD00000D
:1005500000080140000C014000040040002C014054
:10056000000800400800002098812142040000207B
:1005700010B504462146FC4802F0B6F910BD10B58E
:1005800004462146F84802F0ADF910BD10B5044606
:100590002146F64802F0ACF910BD10B5FFF7D8FDC2
:1005A0004FF4A06000F0E8FEFFF73CFEFFF78BFE83
:1005B000FFF7A8FE4FF4E13000F04FFD00F046FCDD
:1005C0006E20FFF7E3FFEA480078FFF7D8FFE9481D
:1005D0000078FFF7CDFF10BD70B504460D46E1B2BF
:1005E000E54802F013FB00BF8021E34802F07CFBEA
:1005F0000128F9D1204670BD10B5E048008881B2CD
:10060000D94802F073F90021D74802F071F910BD02
:1006100010B50021D44802F069F9D848008881B2A9
:10062000D14802F065F910BD10B50021CE4802F0A6
:100630005DF90021CC4802F05BF910BD10B5D0483F
:10064000008800F4004038B340F27620CB490860BF
:10065000CB480078CB4908700020CB49087012E0E5
:10066000CA48C9490978405CC349091D088000BFD0
:10067000C148008800F040000028F9D0C248007846
:10068000401CC1490870C0480078BE4909788842BA
:10069000E6DB0020BA490880BDA1BC4802F097FB08
:1006A00068B9FFF7C1FF6E20FFF770FFB74802F08F
:1006B00087FB04462146B54802F077FBDEE1B6A190
:1006C000B24802F084FB50B9FFF7A2FFAF4802F036
:1006D00077FB04462146AD4802F067FBCEE1B0A1AE
:1006E000AA4802F074FB50B9FFF786FFA74802F052
:1006F00067FB04462146A54802F057FBBEE1AAA1CC
:10070000A24802F064FB58B94620FFF73FFF9F481C
:1007100002F056FB044621469C4802F046FBADE140
:10072000A3A19A4802F053FB58B98720FFF72EFF88
:10073000964802F045FB04462146944802F035FBFA
:100740009CE19EA1914802F042FB68B94620FFF768
:100750001DFFFFF751FF8D4802F032FB0446214692
:100760008A4802F022FB89E197A1884802F02FFB1A
:1007700068B98720FFF70AFFFFF73EFF834802F0C2
:100780001FFB04462146814802F00FFB76E191A150
:100790007E4802F01CFB68B94620FFF7F7FEFFF722
:1007A00037FF7A4802F00CFB04462146774802F0F6
:1007B000FCFA63E18AA1754802F009FB68B9872059
:1007C000FFF7E4FEFFF724FF704802F0F9FA044651
:1007D00021466E4802F0E9FA50E184A16B4802F02C
:1007E000F6FA88B962480078401D614908700846E9
:1007F0000078FFF7C4FE654802F0E2FA044621469D
:10080000624802F0D2FA39E17AA1604802F0DFFAD8
:1008100088B957480078401F554908700846007845
:10082000FFF7ADFE594802F0CBFA0446214657487F
:1008300002F0BBFA22E171A1544802F0C8FA88B96B
:100840004C480078401D4B49087008460078FFF777
:100850008FFE4E4802F0B4FA044621464B4802F09F
:10086000A4FA0BE167A1494802F0B1FA88B94148FE
:100870000078401F3F49087008460078FFF778FE6F
:10088000424802F09DFA04462146404802F08DFAA3
:10089000F4E05FA13D4802F09AFAB0B95A20344919
:1008A000087056203349087008460078FFF760FE4C
:1008B0002F480078FFF763FE344802F081FA0446BF
:1008C0002146324802F071FAD8E054A12F4802F0D4
:1008D0007EFA78B90120544908600102534800F0BB
:1008E000C8FE2A4802F06CFA04462146274802F066
:1008F0005CFAC3E04EA1254802F069FA80B90020F5
:10090000494908604FF48071484800F0B0FE1F4824
:1009100002F056FA044621461C4802F046FAADE0C1
:1009200045A11A4802F053FA58B901204449086019
:10093000164802F045FA04462146144802F035FAFA
:100940009CE040A1114802F042FA58B900203C490D
:1009500008600E4802F034FA044621460B4802F0C3
:1009600024FA8BE072E0000000040040002C0140FB
:100970001300002014000020003801400C0000206B
:100980003C00002011000020100000207400002016
:100990004D445F73746F70004D445F646F776E00F9
:1009A0004D445F75700000004D445F6C65667400D7
:1009B0004D445F7269676874000000004D445F55E4
:1009C0004C656674000000004D445F5552696768CD
:1009D000740000004D445F424C65667400000000E6
:1009E0004D445F425269676874000000444A5F7575
:1009F00070000000444A5F646F776E00444A5F6C89
:100A000065667400444A5F7269676874000000009C
:100A1000444A5F6D6964646C6500000073746F70B4
:100A200062757A7A0000000088812242000C014041
:100A30006265657000000000747261636B00000005
:100A40002C00002073746F7000000000CEA1D1480C
:100A500002F0BDF990B9D0480078401CCE4908702A
:100A6000CE480068C043CE49C1F89C01C94802F095
:100A7000A7F904462146C74802F097F910BD10B502
:100A8000C848006818B300F03DFAC74800680A2853
:100A900008D20020C5490860FFF7BAFD0120C4490B
:100AA000086014E0C04800680A2810D90120BF4936
:100AB0000860BF48006820B10020BD490860FFF70A
:100AC000B3FD40F22620BB490860FFF7B7FDBA48E6
:100AD0000068002873D04FF4E170B6490860022125
:100AE000B64800F0AAFDB64988700421B34800F06A
:100AF000A4FDB34948700821B04800F09EFDB049FC
:100B0000087008460178407801EB4001AC488078D5
:100B100001EB8000AB4908600846006808284CD209
:100B2000DFE800F0040D161F283137405520FFF78D
:100B30002DFD5520FFF72AFDFFF75EFD3EE0522018
:100B4000FFF724FD5220FFF721FDFFF755FD35E0AB
:100B50006E20FFF71BFD6E20FFF718FDFFF764FD09
:100B60002CE05520FFF712FD5520FFF70FFDFFF792
:100B700043FD23E08720FFF709FD8720FFF706FDEF
:100B8000FFF73AFD1AE06E20FFF700FDFFF734FD96
:100B900014E08220FFF7FAFC8220FFF7F7FCFFF752
:100BA0002BFD0BE04FF4C870824908606E20FFF700
:100BB000EDFCFFF72DFD01E001E000BF00BF76492D
:100BC000087800EBD0714910A0EB4101002979D1E0
:100BD0007D48008800F4004018B37B4800787B49CA
:100BE000087000207A49087012E07A48784909783C
:100BF000405C7949088000BF7748001F008800F0FA
:100C000040000028F8D072480078401C70490870F5
:100C10006F4800786D4909788842E6DB00206A4910
:100C200008806C4800786F286FD16A4840786B283C
:100C3000FAD16AA1674802F0D9F868A1002002F051
:100C4000D5F8044602F0F4F86549086063A1002075
:100C500002F0CCF8044602F0EBF86249086062A1A9
:100C6000002002F0C3F8044602F0E2F85F49086091
:100C7000084603685B480268594801685CA002F0B6
:100C8000A7F9544802F09CF804462146514802F066
:100C90008CF853480068962815D951480068BE283A
:100CA00011D250480068AA280DD94E480068E6289D
:100CB00009D26E20FFF76AFCFFF7B6FC54A002F0E1
:100CC00087F94DE05FE046480068A5280CD245480A
:100CD0000068C32808D28220FFF758FCFFF78CFC7D
:100CE0004EA002F075F93BE03D480068A5280DD9FB
:100CF0003C480068C32809D25520FFF747FCFFF79E
:100D00007BFC49A002F064F92AE021E03448006845
:100D1000A5280CD233480068C32808D95520FFF70E
:100D200035FCFFF775FC43A002F052F918E02C489F
:100D30000068A52814D92B480068C32810D9822040
:100D4000FFF724FCFFF764FC3CA002F041F907E048
:100D5000204802F035F8044621461E4802F025F8E6
:100D60001C48007866280ED11A48007861280AD1FC
:100D700034A002F02DF9174802F022F8044621466B
:100D8000144802F012F810BD61766F6964616E63F9
:100D90006500000074000020120000209C812142A8
:100DA000008021420400002038000020A0012142E0
:100DB000300000200C0000202C000020001001401A
:100DC00024000020280000203E0000201100002008
:100DD000100000203C010020044400402C000000D2
:100DE000180000201C0000203B0000002000002014
:100DF00064617461583D25640A2064617461593DE1
:100E000025640A2064617461543D25640A00000071
:100E1000D5FDBAC320CDA3D6B9000000D3D2D7AA3E
:100E2000CFF2C7B000000000D7F3D7AACFF2C7B007
:100E300000000000D7F3BAF3D7AA0000D3D2BAF368
:100E4000D7AA00006661696C0000000008B50121A6
:100E5000102000F01BFE4FF48070ADF80000102051
:100E60008DF8030003208DF802006946324800F037
:100E700051FB4FF40070ADF8000004208DF8030022
:100E800069462D4800F046FB08BD10B52B4801F01F
:100E900048FD00EB800000EB001040004FF4FA61C9
:100EA00090FBF1F02649088010BD10B54FF4807119
:100EB000214800F0DCFB1420FFF763F94FF4807148
:100EC0001D4800F0D6FB00BF4FF400711A4800F037
:100ED000B4FB0028F8D00121184801F06BFA00BFDC
:100EE0004FF40071144800F0A8FB0028F8D100214D
:100EF000124801F05FFAFFF7C8FF00210F4801F028
:100F0000EDFC10BD10B5FFF7D0FF0D4A1088C217D9
:100F100000EB12621212A0EB0222094B1988CB17C8
:100F200001EB13631B1203EBC30404EB031302EB8B
:100F30008302044B1A6010BD0010014000080040FD
:100F4000340000203800002010B586B0044601218E
:100F500044F2040000F09AFD4FF40070ADF8140064
:100F600003208DF8160018208DF8170005A97B487E
:100F700000F0D0FA4FF48060ADF8140004208DF832
:100F8000170005A9754800F0C5FA25208DF8000066
:100F900003208DF801008DF8020001208DF8030078
:100FA000684600F0EEF901940020ADF80800ADF8B5
:100FB0000A00ADF80C00ADF810000C20ADF80E00E2
:100FC00001A9674801F029FD012240F2255164483A
:100FD00001F0BBFD0121624801F0ABFD06B010BD80
:100FE00010B540F225515E4801F094FE10B35C4804
:100FF00001F010FEC4B25B48008800F40040C8B99C
:101000005848008800F4804060B10A2C03D00020CA
:101010005449088020E05348008840F4004051497A
:10102000088019E00D2C06D14E48008840F480401D
:101030004C49088010E04B480088C0F30D004A4935
:101040000C5448480088401C4649088008460088DF
:10105000C72801DD0020088010BD10B586B0044609
:101060000121424800F01FFD0420ADF814000320C8
:101070008DF8160010208DF8170005A9374800F0EC
:1010800049FA0820ADF8140004208DF8170005A9CE
:10109000324800F03FFA26208DF8000002208DF83B
:1010A000010003208DF8020001208DF8030068463E
:1010B00000F067F901940020ADF80800ADF80A00CF
:1010C000ADF80C00ADF810000C20ADF80E0001A931
:1010D000274801F0A2FC012240F22551244801F0EA
:1010E00034FD0121224801F024FD06B010BD10B5E9
:1010F00040F225511E4801F00DFE70B31C4801F06E
:1011000089FDC4B21B48008800F4004028BB194880
:10111000008800F4804030B11648008840F4004058
:101120001449088019E03B2C06D11248008840F48D
:1011300080401049088010E00E480088C0F30D0080
:101140000D490C540B480088401C0A490880084689
:101150000088C72801DD0020088010BD000801407C
:10116000003801403C000020740000200400020010
:10117000004400403E0000203C010020704700BFBA
:10118000FEE700BFFEE700BFFEE700BFFEE77047D7
:1011900070477047704700000CB500200190009028
:1011A0006C48006840F480306A49086000BF6948B4
:1011B000006800F4003000900198401C01900098F5
:1011C00018B90198B0F5A06FF1D16248006800F439
:1011D000003010B10120009001E000200090009844
:1011E000012843D15C48006840F010005A4908606B
:1011F0000846006820F0030008600846006840F0D8
:1012000002000860534840685249486008464068F8
:1012100048600846406840F480604860084640687E
:1012200020F47C1048600846406840F4E8104860AC
:101230000846006840F08070086000BF45480068BC
:1012400000F000700028F9D04248406820F0030008
:10125000404948600846406840F00200486000BFCE
:101260003C48406800F00C000828F9D10CBD10B5CE
:10127000FFF792FF10BD10B53648006840F001003E
:10128000344908600846406834490840314948609C
:1012900008460068324908402E4908600846006840
:1012A00020F4802008600846406820F4FE00486072
:1012B0004FF41F008860FFF7DAFF4FF00060294904
:1012C000086010BD10B5002100200022214B5B6892
:1012D00003F00C0121B1042906D0082928D107E028
:1012E000214B224C236027E01F4B204C236023E03E
:1012F000184B5B6803F47010164B5B6803F4803284
:10130000022303EB904022B9194B4343174C23604F
:101310000DE0104B5B6803F4003323B1144B4343DF
:10132000124C236003E0104B4343104C236003E056
:101330000D4B0E4C236000BF00BF064B5B68C3F330
:1013400003130C4CE15C094B1B68CB40074C23603A
:1013500010BD000000100240002002400000FFF815
:10136000FFFFF6FE08ED00E000127A0040000020CA
:1013700000093D004400002031490143314A116019
:10138000704770B5002100230F22C47804B32D4CA0
:10139000246804F4E064C4F5E064210AC1F10403A4
:1013A000CA40447804FA03F18478144021430901C7
:1013B000254C0678A155047804F01F050124AC40A3
:1013C00005786D11AD0005F1E025C5F8004109E093
:1013D000047804F01F050124AC401C4D06787611FA
:1013E00045F8264070BD1A4A0A400243154B1B1FA0
:1013F0001A60704739B1134A121D12680243114B2B
:101400001B1D1A6006E00F4A121D126882430D4B25
:101410001B1D1A607047042808D14FF0E0210969AC
:1014200041F004014FF0E022116107E04FF0E021AC
:10143000096921F004014FF0E022116170470000BA
:101440000000FA050CED00E000E400E080E100E0BF
:1014500080FFFF1F10B50446CC48844208D101210B
:10146000042000F02DFB0021042000F029FB46E0C1
:10147000C748844208D10121082000F021FB002147
:10148000082000F01DFB3AE0C248844208D1012147
:10149000102000F015FB0021102000F011FB2EE0C1
:1014A000BD48844208D10121202000F009FB002121
:1014B000202000F005FB22E0B848844208D1012139
:1014C000402000F0FDFA0021402000F0F9FA16E07B
:1014D000B348844208D10121802000F0F1FA0021B4
:1014E000802000F0EDFA0AE0AE48844207D10121E5
:1014F000801500F0E5FA0021A01500F0E1FA10BD1A
:1015000010B50121084600F0DBFA0021012000F0AF
:10151000D7FA10BD2DE9F041024600250026002033
:1015200000230024002791F803C00CF00F0591F868
:1015300003C00CF0100CBCF1000F03D091F802C0F6
:101540004CEA050591F800C0BCF1000F31D01468D9
:1015500000202BE04FF0010C0CFA00F3B1F800C0B2
:101560000CEA03069E4220D183004FF00F0C0CFAC8
:1015700003F7BC4305FA03FC4CEA040491F803C0EA
:10158000BCF1280F06D14FF0010C0CFA00FCC2F898
:1015900014C00AE091F803C0BCF1480F05D14FF028
:1015A000010C0CFA00FCC2F810C0401C0828D1D372
:1015B0001460B1F800C0BCF1FF0F34DD54680020A6
:1015C0002EE000F1080C4FF0010808FA0CF3B1F816
:1015D00000C00CEA03069E4221D183004FF00F0C9D
:1015E0000CFA03F7BC4305FA03FC4CEA040491F837
:1015F00003C0BCF1280F05D100F1080C08FA0CF863
:10160000C2F8148091F803C0BCF1480F07D100F173
:10161000080C4FF0010808FA0CF8C2F81080401CC2
:101620000828CED35460BDE8F0814FF6FF710180E9
:10163000022181700421C170704702460020936826
:101640000B400BB1012000E0002070470146886884
:1016500080B2704702460020D3680B400BB10120D6
:1016600000E0002070470146C86880B27047016101
:101670007047416170470AB1016100E04161704704
:10168000C16070474FF480320A4382618161826198
:1016900082698269704702460020434B18684FF602
:1016A0008073184040EA021008433F4B18607047AF
:1016B0003E49C8617047F0B50A4600230024002166
:1016C000002500F00046B6F1004F02D1364EF16918
:1016D00001E0354E7168C0F3034583B200F4401653
:1016E000B6F5401F08D121F070612F4E766826F0C4
:1016F00070662D4F7E6012E000F48016B6F5801FF4
:1017000006D1032606FA05F4A14341F0706106E014
:10171000460D360103FA06F6B14341F0706122B17D
:10172000460D360103FA06F6314300F00046B6F1E5
:10173000004F02D11C4EF16101E01B4E7160F0BD03
:1017400030B500228B071C0F0F2303FA04F2164B4F
:1017500008338C1053F824309343134C08348D1005
:1017600044F8253023468C1053F824308C07240F7E
:1017700000FA04F423430C4C08348D1044F825304F
:1017800030BD0A49DC3108607047000000080140A4
:10179000000C0140001001400014014000180140FD
:1017A000001C0140002001400000014000002042D8
:1017B000DF48006840F00100DD49086008464068E5
:1017C000DC490840DA49486008460068DA490840C0
:1017D000D74908600846006820F480200860084661
:1017E000406820F4FE0048604FF41F008860704796
:1017F000CF49096821F48031CD4A1160114609684A
:1018000021F480211160B0F5803F03D0B0F5802F26
:101810000ED106E0C649096841F48031C44A11601E
:1018200007E0C349096841F4A021C14A116000E002
:1018300000BF00BF704710B5014600220023002002
:101840004A11012A02D1BA4C236806E0022A02D1C9
:10185000B74C236A01E0B64C636A01F01F02012411
:1018600094401C400CB1012000E0002010BD38B5B0
:10187000002000900024002500BF3120FFF7DBFF8F
:1018800005460098401C00900098B0F5A06F01D06C
:10189000002DF2D03120FFF7CEFF08B1012400E087
:1018A0000024204638BD01460020A14A106820F0DF
:1018B000F80040EAC10010607047A0490860704716
:1018C000024600209A4B586820F47C1042EA01033B
:1018D0001843974B5860704798490866704701460F
:1018E0000020934A506820F003000843506070477E
:1018F0008F48406800F00C007047014600208C4A79
:10190000506820F0F0000843506070470146002006
:10191000874A506820F4E0600843506070470146F1
:101920000020834A506820F4605040EAC1005060B3
:10193000704729B17E4A527A02437D4B5A7204E0C5
:101940007B4A527A82437A4B5A7270477B49D8312C
:101950000860704701460020754A506820F44040F6
:101960000843506070470021714A20321170704A5C
:1019700082F82010012802D004280AD104E00121B5
:101980006B4A2032117005E00521694A203211703E
:1019900000E000BF00BF70476949086070476449B4
:1019A000096A0143624A1162704765494439086017
:1019B000704730B500210022002400235C4D6D6883
:1019C00005F00C0121B1042905D0082923D105E037
:1019D0005C4D056022E05B4D05601FE0544D6D6875
:1019E00005F47012524D6D6805F48034022505EB44
:1019F00092421CB9544D554305600BE04C4D6D6847
:101A000005F400351DB1504D5543056002E04D4DC4
:101A10005543056002E04B4D056000BF00BF444DDB
:101A20006D6805F0F0010909484D6B5C0568DD4003
:101A300045603F4D6D6805F4E061090A434D6B5CFC
:101A40004568DD4085603A4D6D6805F46051C90A0E
:101A50003E4D6B5C4568DD40C560354D6D6805F4F5
:101A60004041890B3A4D6B5CC568B5FBF3F50561E8
:101A700030BD29B12E4A526902432D4B5A6104E010
:101A80002B4A526982432A4B5A61704729B1284A2E
:101A900092690243264B9A6104E0254A9269824387
:101AA000234B9A61704729B1214AD2690243204BE6
:101AB000DA6104E01E4AD26982431D4BDA61704745
:101AC00029B11B4AD2680243194BDA6004E0184A74
:101AD000D2688243164BDA60704729B1144A126902
:101AE0000243134B1A6104E0114A12698243104BFE
:101AF0001A61704712494039086070470F49C8643D
:101B000070470B49C87170470948406A40F08070BF
:101B100007494862704701460020054A92680A401A
:101B20000AB1012000E00020704701498872704727
:101B3000001002400000FFF8FFFFF6FE00004242E6
:101B40008004424200127A0000093D005400002047
:101B50006400002010B50446FE48844208D10121EB
:101B6000C014FFF7ADFF0021E014FFF7A9FFC4E0A8
:101B7000B4F1804F08D101210846FFF7AEFF0021E4
:101B80000120FFF7AAFFB8E0F348844208D1012101
:101B90000220FFF7A2FF00210220FFF79EFFACE02A
:101BA000EE48844208D101210420FFF796FF00216E
:101BB0000420FFF792FFA0E0E948844208D1012108
:101BC0000820FFF78AFF00210820FFF786FF94E036
:101BD000E448844208D101211020FFF77EFF002154
:101BE0001020FFF77AFF88E0DF48844208D1012106
:101BF0002020FFF772FF00212020FFF76EFF7CE01E
:101C0000DA48844208D101214014FFF759FF00212E
:101C10006014FFF755FF70E0D548844209D10121D7
:101C2000C804FFF74DFF00214FF40020FFF748FFE5
:101C300063E0D048844209D101210805FFF740FF45
:101C400000214FF48010FFF73BFF56E0CA48844262
:101C500009D101214805FFF733FF00214FF400109F
:101C6000FFF72EFF49E0C548844208D101214020FA
:101C7000FFF733FF00214020FFF72FFF3DE0C04872
:101C8000844208D101218020FFF727FF0021802016
:101C9000FFF723FF31E0BB48844208D101218015C2
:101CA000FFF71BFF0021A015FFF717FF25E0B6483F
:101CB000844209D101210804FFF702FF00214FF4FB
:101CC0008030FFF7FDFE18E0B048844209D10121C1
:101CD0004804FFF7F5FE00214FF40030FFF7F0FE57
:101CE0000BE0AB48844208D101218804FFF7E8FEED
:101CF00000214FF48020FFF7E3FE10BD0022028890
:101D0000944B98420ED0994B98420BD0B0F1804F33
:101D100008D0914B984205D0904B984202D0904BFE
:101D2000984204D14FF68F731A404B881A438D4B5B
:101D3000984207D08C4B984204D04FF6FF431A408C
:101D4000CB881A4302808B8883850B880385814B5F
:101D500098420BD0854B984208D08B4B984205D0C7
:101D60008A4B984202D08A4B984201D10B7A038663
:101D700001238382704770B5002400220023058C64
:101D80004FF6FE7635400584028C8388048B4FF62F
:101D90008F752C40B51E2C400D882C43751E2A4093
:101DA0000D892A434D882A436A4DA8420BD06F4DB6
:101DB000A84208D0744DA84205D0744DA84202D064
:101DC000734DA84213D14FF6F7752A404D892A4327
:101DD0004FF6FB752A408D882A434FF6FF652B404E
:101DE0004FF6FF552B408D892B43CD892B438380A4
:101DF0000483CD888586028470BD70B500240022DE
:101E00000023058C4FF6EF7635400584028C8388DD
:101E1000048B48F6FF752C404FF6FF452C400D888B
:101E20004FF6FF7606EA05252C434FF6DF752A406C
:101E30000D8906EA05152A434D8806EA05152A4349
:101E4000444DA84202D0494DA8421DD14FF67F759E
:101E50002A404D894FF6FF7606EA05152A434FF6CC
:101E6000BF752A408D8806EA05152A434FF6FF35CF
:101E70002B404FF2FF752B408D8906EA85052B43D9
:101E8000CD8906EA85052B4383800483CD880587A9
:101E9000028470BD70B5002400220023058C4FF62B
:101EA000FF6635400584028C8388848B4FF68F75DE
:101EB0002C404FF6FC752C400D882C434FF6FF55F7
:101EC0002A400D894FF6FF7606EA05252A434D88FC
:101ED00006EA05252A431F4DA84202D0234DA842F9
:101EE0001DD14FF2FF752A404D894FF6FF7606EA65
:101EF00005252A434FF6FF352A408D8806EA052539
:101F00002A434EF6FF752B404DF6FF752B408D8909
:101F100006EA05152B43CD8906EA05152B43838078
:101F20008483CD888587028470BD70B5002200232C
:101F30000024058C4EF6FF7635400584038C84889A
:101F4000828B48F6FF752A404FF6FF452A400D88E0
:101F500020E00000002C0140000400400008004088
:101F6000000C00400010004000140040003401400C
:101F7000004C014000500140005401400018004056
:101F8000001C00400020004000400140004401408F
:101F9000004801404FF6FF7606EA05252A434DF634
:101FA000FF752B400D8906EA05352B434D8806EA5F
:101FB00005352B43FA4DA84202D0FA4DA84208D16C
:101FC0004BF6FF752C408D894FF6FF7606EA851596
:101FD0002C4384808283CD88A0F84050038470BD58
:101FE000828B4FF2FF331A408283828B4FF6FF734E
:101FF00003EA01231A4382837047F0B50C46154665
:10200000002200210026078C4EF6FF7C07EA0C0711
:102010000784828B018C4FF6FF7707EA043640F67F
:10202000FF473A404FF6FF7707EA05273A434FF656
:10203000FF7707EA03373A43D94FB8420ED0D94F5A
:10204000B8420BD0B0F1804F08D0D74FB84205D07E
:10205000D64FB84202D0D64FB84206D14DF6FF77E0
:10206000394046F48057394305E047F6FF57394079
:1020700044F48057394382830184F0BD828B4FF64C
:10208000F3731A408283828B0A4382837047F0B5D0
:102090000C461546002200210026078C4FF6FF6CE7
:1020A00007EA0C070784828B018C4FF6FF7707EA5B
:1020B00004264FF60C773A404FF6FF7707EA0317EE
:1020C0002F433A43B64FB8420ED0B64FB8420BD06A
:1020D000B0F1804F08D0B44FB84205D0B34FB842EA
:1020E00002D0B34FB84206D14FF6FF57394046F4FD
:1020F0008077394305E04FF2FF57394044F4807749
:10210000394382830184F0BD028B4FF2FF331A40C2
:102110000283028B4FF6FF7303EA01231A43028303
:102120007047F0B50C461546002200210026078CAA
:102130004FF6EF7C07EA0C070784028B018C4FF601
:10214000FF7707EA041640F6FF473A404FF6FF775D
:1021500007EA03373A434FF6FF7707EA05273A4382
:102160008F4FB8420ED08F4FB8420BD0B0F1804F96
:1021700008D08D4FB84205D08C4FB84202D08C4F5A
:10218000B84206D14FF6DF77394046F010073943A1
:1021900005E04FF65F77394044F01007394302837A
:1021A0000184F0BD028B4FF6F3731A400283028B59
:1021B0000A4302837047F0B50C4615460022002101
:1021C000068C4FF6FE773E400684028B018C4FF65C
:1021D0000C7632407E1C06EA03162E433243704EC4
:1021E000B0420ED06F4EB0420BD0B0F1804F08D04D
:1021F0006D4EB04205D06D4EB04202D06C4EB04232
:1022000006D14FF6FD76314044F00106314305E03A
:102210004FF6F576314044F00106314302830184E4
:10222000F0BD70B505460C465D4885420ED05D4850
:1022300085420BD0B5F1804F08D05B48854205D070
:102240005A48854202D05A48854200D100E000BF7A
:10225000208850B92389A28861882846FFF7ABFF00
:10226000E1882846FFF79EFF25E0208804280AD150
:102270002389A28861882846FFF753FFE188284612
:10228000FFF742FF17E0208808280AD12389A28897
:1022900061882846FFF7FBFEE1882846FFF7EEFE3F
:1022A00009E02389A28861882846FFF7A6FEE18815
:1022B0002846FFF795FE70BD2DE9F04105460C4616
:1022C00000260127608808B9022600E00026A088C1
:1022D000012801D1022700E001272088A0B9238925
:1022E000A28861882846FFF766FFE1882846FFF745
:1022F00059FF23893A4631462846FFF712FFE18805
:102300002846FFF701FF13E02389A2886188284649
:10231000FFF707FFE1882846FFF7F6FE23893A46D4
:1023200031462846FFF747FFE1882846FFF73AFF86
:10233000BDE8F0810A884B881A438B881A43CB8802
:102340001A430B891A434B891A438B891A43A0F805
:10235000442070474FF6FF71818000210180C180C9
:102360004180017270470021018041808180C180DD
:10237000018141818181C1817047002101804180BB
:10238000012181800021C1800181704700210180ED
:1023900041808180C180018141818181704700003D
:1023A000002C0140003401400004004000080040BF
:1023B000000C004021B1028842F00102028004E0DA
:1023C00002884FF6FE731A400280704731B1B0F8B0
:1023D000442042F40042A0F8442005E0B0F8442034
:1023E000C2F30E02A0F8442070471AB183890B4350
:1023F000838102E083898B438381704781827047A8
:1024000041EA0203A0F8483070471AB183890B43B0
:10241000838102E083898B438381704701894FF672
:10242000F8721140018170470A46002101894FF678
:102430008F73194011430181704730B504460D4632
:1024400029462046FFF7F0FF208940F00700208151
:1024500030BD2DE9F04104460D4616461F46602D5D
:1024600006D13B46012231462046FFF75AFE05E0E1
:102470003B46012231462046FFF79DFE2946204675
:10248000FFF7D2FF208940F007002081BDE8F081EE
:1024900030B50C4600210189C9B24FF6FF7505EA37
:1024A0000325154325432943018130BD2DE9F04122
:1024B00005460E4617469846002443463A4631469E
:1024C0002846FFF7E5FF2C894FF6F870044044F0EA
:1024D00007044FF68F70044044F070042C81BDE86F
:1024E000F081F0B504460D4616461F463B4632467F
:1024F00029462046FFF7CCFF208940F48040208108
:10250000F0BD0185828270470A46002101884FF69E
:102510008F731940114301807047F0B50C46154682
:102520001E460021002200230189028B038C4FF6F6
:10253000F877394021434FF6FC473A4040F2011703
:102540003A434FF6DD773B404FF6FF7707EA061731
:102550002F433B43018102830384F0BD0A460021DF
:10256000018B4FF68F7319401143018370470A4660
:102570000021018B48F6FF7319404FF6FF7303EA01
:1025800002231943018370470A460021818B4FF6CD
:102590008F7319401143818370470A460021818B54
:1025A00048F6FF7319404FF6FF7303EA02231943FD
:1025B0008183704721B1028842F08002028004E0EA
:1025C00002884FF67F731A400280704721B18288DB
:1025D00042F00402828004E082884FF6FB731A40C6
:1025E0008280704721B1828842F00802828004E034
:1025F00082884FF6F7731A408280704721B1828833
:1026000042F00102828004E082884FF6FE731A4095
:10261000828070470A460021018B4FF6F7731940FC
:102620001143018370470A460021018B4FF2FF736B
:1026300019404FF6FF7303EA0223194301837047E1
:102640000A460021818B4FF6F773194011438183AD
:1026500070470A460021818B4FF2FF7319404FF6F5
:10266000FF7303EA02231943818370470A4600215E
:10267000018B4FF6FB7319401143018370470A46E3
:102680000021018B4FF6FF3319404FF6FF7303EA29
:1026900002231943018370470A460021818B4FF6BC
:1026A000FB7319401143818370470A460021818BD7
:1026B0004FF6FF3319404FF6FF7303EA0223194325
:1026C000818370470A460021018B4FF67F731940C2
:1026D0001143018370470A460021018BC1F30E01AB
:1026E0004FF6FF7303EA02231943018370470A463A
:1026F0000021818B4FF67F7319401143818370470E
:102700000A460021818BC1F30E014FF6FF7303EAE5
:1027100002231943818370470A460021018C4FF63A
:10272000FD7319401143018470470A460021018C52
:102730004FF6F77319401143018470470A46002190
:10274000018C4FF6DF7319404FF6FF7303EA021353
:102750001943018470470A460021018C4FF67F73AC
:1027600019404FF6FF7303EA0213194301847047BF
:102770000A460021018C4FF6FF5319404FF6FF73B4
:1027800003EA02231943018470470A460021018CA1
:102790004FF2FF7319404FF6FF7303EA0223194308
:1027A000018470470A460021018C4DF6FF731940E1
:1027B0004FF6FF7303EA023319430184704730B5C3
:1027C000002301248C40A3B2048C9C430484048C19
:1027D00002FA01F5ADB22C43048430BD30B50023BC
:1027E00004248C40A3B2048C9C430484048C02FA1D
:1027F00001F5ADB22C43048430BD70B50346002012
:1028000000241846183001258D40ACB21D8CA5431C
:102810001D8409B1082909D100EB6100056825F084
:10282000700505600568154305600EE00D1FC5F3D2
:102830004E052844056825F4E045056005684FF617
:10284000FF7606EA02263543056070BD21B1028895
:1028500042F00202028004E002884FF6FD731A4043
:102860000280704721B1028842F00402028004E035
:1028700002884FF6FB731A400280704721B18288AC
:1028800042F08002828004E082884FF67F731A4013
:102890008280704702884FF6F7731A4002800288E0
:1028A0000A430280704782884FF68F731A408280F5
:1028B00082880A438280704702894FF6F8731A4073
:1028C000028102890A430281704702894FF67F73B1
:1028D0001A40028102890A4302817047818470474D
:1028E000818570478186704701877047818770476F
:1028F000A0F84010704702884FF6FF431A4002804C
:1029000002880A43028070470146888E704701465C
:10291000088F70470146888F70470146B1F8400024
:1029200070470146888C70470146088D7047024603
:102930000020138A0B400BB1012000E000207047FB
:10294000CA430282704730B50246002000230024AB
:10295000158A05EA0103958905EA010413B10CB152
:10296000012000E0002030BDCA4302827047000011
:102970000648804706480047FEE7FEE7FEE7FEE719
:10298000FEE7FEE7FEE7FEE7FEE7FEE77712000858
:102990003101000810B50446FB48844209D10121E9
:1029A0008803FFF78DF800214FF48040FFF788F887
:1029B00032E0F648844209D101214804FFF78DF83E
:1029C00000214FF40030FFF788F825E0F0488442FA
:1029D00009D101218804FFF780F800214FF48020FD
:1029E000FFF77BF818E0EB48844209D10121C804C5
:1029F000FFF773F800214FF40020FFF76EF80BE0AB
:102A0000E548844208D101210805FFF766F8002156
:102A10004FF48010FFF761F810BD2DE9F04786B044
:102A200005460E460024A24600BFA1460027B089F5
:102A300000B100BF2F462C8A4CF6FF700440F0888E
:102A400004432C82AC894EF6F3100440B0883189DF
:102A50000843718908430443AC81AC8A4FF6FF40B8
:102A60000440B0890443AC8201A8FEF7A2FFC64827
:102A7000874202D1DDF810A001E0DDF80CA0A889A2
:102A800000F4004040B10AEBCA0000EB0A103168C4
:102A90004900B0FBF1F807E00AEBCA0000EB0A10AE
:102AA00031688900B0FBF1F86420B8FBF0F0040154
:102AB0002009642101FB1089A88900F4004040B17D
:102AC000322000EBC900B0FBF1F000F00700044336
:102AD00008E0322000EB09106421B0FBF1F000F0B7
:102AE0000F0004432C8106B0BDE8F0874FF4165167
:102AF000016000218180C18001810C214181002180
:102B00008181704710B502460020108A4FF2FF0302
:102B100018400B884C8823438C882343CC8823435C
:102B20001843108210BD0021018041808180C18046
:102B3000704721B1828942F40052828104E0828987
:102B40004DF6FF731A4082817047F0B503460024AA
:102B500000260025002040F66A17B94200D100BFC8
:102B60001846C1F3421401F01F06012707FA06F5C3
:102B7000012C01D10C3004E0022C01D1103000E016
:102B800014301AB107682F43076002E00768AF43AB
:102B90000760F0BD1AB1838A0B43838202E0838A07
:102BA0008B4383827047028A4FF6F0731A40028289
:102BB000028A0A430282704782894FF2FF731A40E9
:102BC000828182890A438281704721B1828942F0E1
:102BD0000202828104E082894FF6FD731A408281ED
:102BE0007047028A4FF6DF731A400282028A0A4354
:102BF0000282704721B1028A42F48042028204E0DC
:102C0000028A4BF6FF731A4002827047C1F3080232
:102C10008280704701468888C0F308007047818928
:102C200041F0010181817047028BD2B20283028B95
:102C300042EA012202837047028B02F47F42028340
:102C4000028B0A430283704721B1828A42F020023C
:102C5000828204E0828A4FF6DF731A4082827047D4
:102C600021B1828A42F01002828204E0828A4FF609
:102C7000EF731A408282704721B1828A42F00802C3
:102C8000828204E0828A4FF6F7731A40828270478C
:102C900021B1828942F40042828103E08289C2F339
:102CA0000E028281704721B1828A42F400628282E0
:102CB00004E0828A4FF2FF731A4082827047828A50
:102CC0004FF6FB731A408282828A0A4382827047DF
:102CD00021B1828A42F00202828204E0828A4FF6A7
:102CE000FD731A408282704702460020B1F5007FD2
:102CF00000D100BF13880B400BB1012000E0002081
:102D0000704701F40072B2F5007F00D100BFCA43E2
:102D10000280704770B50246002400230025002081
:102D200040F66A16B14200D100BFC1F3421501F06E
:102D30001F03012606FA03F3012D02D196893340C1
:102D400006E0022D02D1168A334001E0968A334014
:102D50000C12012606FA04F41688344013B10CB1A3
:102D6000012000E0002070BD10B50022002340F6D5
:102D70006A14A14200D100BF0A1201249440A3B2F8
:102D8000DC43048010BD00000038014000440040D6
:102D900000480040004C004000500040D2B201E02A
:102DA00000F8012B491EFBD270470022F6E710B550
:102DB00013460A4604461946FFF7F0FF204610BDA9
:102DC000421C10F8011B0029FBD1801A704710B576
:102DD000002200E0521C835C8C5CA34201D1002BDA
:102DE000F8D1D8B2E1B2401A10BD000070B50F4D55
:102DF00000B92868002412E00A4602E09E4203D08F
:102E0000521C1378002BF9D1DAB2224305D02BB132
:102E100024B1002100F8011B04E00446401C0678A0
:102E2000002EE9D12860204670BD00006800002017
:102E300070B5064600F0DCF8046805460A22002159
:102E4000304600F018F82C6070BD30B50B460146D6
:102E500000202022012409E021FA02F59D4205D339
:102E600003FA02F5491B04FA02F52844151EA2F1E3
:102E70000102F1DC30BD2DE9F04791460F46804656
:102E80000446002614F8015B2DB100F03FF80068FD
:102E9000405DC007F6D12B2D02D02D2D18D0641E19
:102EA0004A463946204600F035F827B13968A14234
:102EB00001D1C7F8008071054FF002040BD54042E4
:102EC000002803DD00F094F80460A007BDE8F08757
:102ED00046F48066E4E70028F8DA00F089F8046038
:102EE0006FF00040F2E70000064C074D06E0E06896
:102EF00040F0010394E8070098471034AC42F6D341
:102F0000FDF71AF9F4310008143200080048704740
:102F1000F03100082DE9F05F824600780027154661
:102F20008B460AF10104B946302801D09DB113E067
:102F300014F8010B0127782803D0582801D045B197
:102F40000AE00DB1102D07D10027102514F8010B50
:102F500002E0082500E00A250026B0460EE005FB49
:102F6000080005FB06F1012701EB10461FFA80F867
:102F7000B6F5803F00D3B94614F8010B294600F09E
:102F800018F80028EBDABBF1000F05D00FB1641E72
:102F900000E05446CBF80040B9F1000F06D000F035
:102FA00027F802210160C81EBDE8F09F48EA0640EC
:102FB000FAE73A2800D2303820F02002412A01D323
:102FC000A2F13700884201D34FF0FF307047000074
:102FD0000FB4054B10B503A9044A029800F01CF881
:102FE00010BC5DF814FB0000D90500086C0000203F
:102FF000004870477000002002E008C8121F08C196
:10300000002AFAD170477047002001E001C1121F69
:10301000002AFBD1704700002DE9FF4F89B09B4685
:103020000446002506E025280BD05A460B99904708
:10303000641C6D1C20780028F5D10DB02846BDE831
:10304000F08F0027B8460122474900E0074314F8F3
:10305000013F203B02FA03F00842F7D120782E28E6
:1030600019D114F8010F47F004072A280ED06FF089
:103070002F022078A0F1300109290CD808EB880133
:1030800002EB410100EB0108641CF2E70A98641CA2
:1030900050F8048B0A9020780028CED0642808D0FD
:1030A000692806D075281ED05A460B9990476D1C8A
:1030B00058E00A994FF00A0901C90A91002802DA7A
:1030C00040422D2102E0390504D52B218DF8201036
:1030D000012103E0F90704D02021F7E78A4608AE72
:1030E0000DE00021FAE70A994FF00A0901C90A9197
:1030F000F7E74946FFF7A9FE303106F8011D002821
:10310000F7D1ADEB060000F12009780701D44FF0AC
:103110000108C84502DDA8EB090000E00020804658
:10312000002706E008A85A46C05D0B9990476D1C21
:103130007F1C5745F6DB04E030205A460B99904738
:103140006D1CB8F10001A8F10108F5DC05E016F8E6
:10315000010B5A460B9990476D1CB9F10001A9F17A
:103160000109F4DC641C65E70928010000404040C7
:10317000404040404040414141414140404040404A
:1031800040404040404040404040404040050202F6
:1031900002020202020202020202020202202020B5
:1031A0002020202020202002020202020202909011
:1031B000909090901010101010101010101010100F
:1031C0001010101010101010020202020202888863
:1031D000888888880808080808080808080808086F
:1031E0000808080808080808020202024000000057
:1031F0006D31000814320008000000207400000047
:10320000F82F0008883200087400002094050000A0
:10321000083000080000000000000000010000006D
:10322000580200000000015A560000000000000093
:10323000000000000000000000000000000000008E
:10324000000000000000000000000000000000007E
:103250000000000000A24A0400000000000000007E
:10326000010203040607080900000000010203042C
:103270000102030406070809020406080000000012
:08328000000000000000000046
:0400000508000131BD
:00000001FF
